{
  "_format": "hh-sol-artifact-1",
  "contractName": "ContratoTempus",
  "sourceName": "contracts/ContratoTempus.sol",
  "abi": [
    {
      "inputs": [],
      "stateMutability": "nonpayable",
      "type": "constructor"
    },
    {
      "anonymous": false,
      "inputs": [
        {
          "indexed": false,
          "internalType": "string",
          "name": "nome",
          "type": "string"
        },
        {
          "indexed": false,
          "internalType": "address",
          "name": "carteiraMetamask",
          "type": "address"
        }
      ],
      "name": "ClienteCadastrado",
      "type": "event"
    },
    {
      "anonymous": false,
      "inputs": [
        {
          "indexed": false,
          "internalType": "address",
          "name": "carteiraMetamask1",
          "type": "address"
        },
        {
          "indexed": false,
          "internalType": "address",
          "name": "carteiraMetamask2",
          "type": "address"
        },
        {
          "indexed": false,
          "internalType": "bytes32",
          "name": "sku",
          "type": "bytes32"
        },
        {
          "indexed": false,
          "internalType": "uint256",
          "name": "quantidade",
          "type": "uint256"
        },
        {
          "indexed": false,
          "internalType": "uint256",
          "name": "valor",
          "type": "uint256"
        },
        {
          "indexed": false,
          "internalType": "uint256",
          "name": "timestamp",
          "type": "uint256"
        }
      ],
      "name": "TransacaoRegistrada",
      "type": "event"
    },
    {
      "anonymous": false,
      "inputs": [
        {
          "indexed": false,
          "internalType": "address",
          "name": "carteiraMetamask1",
          "type": "address"
        },
        {
          "indexed": false,
          "internalType": "address",
          "name": "carteiraMetamask2",
          "type": "address"
        },
        {
          "indexed": false,
          "internalType": "bytes32",
          "name": "sku",
          "type": "bytes32"
        },
        {
          "indexed": false,
          "internalType": "uint256",
          "name": "quantidade",
          "type": "uint256"
        },
        {
          "indexed": false,
          "internalType": "uint256",
          "name": "valor",
          "type": "uint256"
        },
        {
          "indexed": false,
          "internalType": "uint256",
          "name": "timestamp",
          "type": "uint256"
        },
        {
          "indexed": false,
          "internalType": "bool",
          "name": "validado",
          "type": "bool"
        }
      ],
      "name": "TransacaoRegistradaDetalhada",
      "type": "event"
    },
    {
      "inputs": [
        {
          "internalType": "bytes32",
          "name": "_sku",
          "type": "bytes32"
        },
        {
          "internalType": "string",
          "name": "_nome",
          "type": "string"
        }
      ],
      "name": "adicionarProduto",
      "outputs": [],
      "stateMutability": "nonpayable",
      "type": "function"
    },
    {
      "inputs": [
        {
          "internalType": "string",
          "name": "_nome",
          "type": "string"
        },
        {
          "internalType": "address",
          "name": "_carteiraMetamask",
          "type": "address"
        }
      ],
      "name": "cadastrarCliente",
      "outputs": [],
      "stateMutability": "nonpayable",
      "type": "function"
    },
    {
      "inputs": [
        {
          "internalType": "address",
          "name": "",
          "type": "address"
        }
      ],
      "name": "detalhesTransacaoPendente",
      "outputs": [
        {
          "internalType": "address",
          "name": "carteira1",
          "type": "address"
        },
        {
          "internalType": "address",
          "name": "carteira2",
          "type": "address"
        },
        {
          "internalType": "bytes32",
          "name": "sku",
          "type": "bytes32"
        },
        {
          "internalType": "uint256",
          "name": "quantidade",
          "type": "uint256"
        },
        {
          "internalType": "uint256",
          "name": "preco",
          "type": "uint256"
        },
        {
          "internalType": "uint256",
          "name": "timestamp",
          "type": "uint256"
        },
        {
          "internalType": "bool",
          "name": "validado",
          "type": "bool"
        }
      ],
      "stateMutability": "view",
      "type": "function"
    },
    {
      "inputs": [
        {
          "internalType": "address",
          "name": "hashCarteira",
          "type": "address"
        }
      ],
      "name": "getClientePorHash",
      "outputs": [
        {
          "components": [
            {
              "internalType": "string",
              "name": "nome",
              "type": "string"
            }
          ],
          "internalType": "struct ContratoTempus.Cliente",
          "name": "",
          "type": "tuple"
        }
      ],
      "stateMutability": "view",
      "type": "function"
    },
    {
      "inputs": [
        {
          "internalType": "bytes32",
          "name": "_sku",
          "type": "bytes32"
        }
      ],
      "name": "obterInformacoesProduto",
      "outputs": [
        {
          "internalType": "string",
          "name": "_nome",
          "type": "string"
        }
      ],
      "stateMutability": "view",
      "type": "function"
    },
    {
      "inputs": [],
      "name": "owner",
      "outputs": [
        {
          "internalType": "address",
          "name": "",
          "type": "address"
        }
      ],
      "stateMutability": "view",
      "type": "function"
    },
    {
      "inputs": [
        {
          "internalType": "address",
          "name": "_carteira1",
          "type": "address"
        },
        {
          "internalType": "address",
          "name": "_carteira2",
          "type": "address"
        },
        {
          "internalType": "bytes32",
          "name": "_sku",
          "type": "bytes32"
        },
        {
          "internalType": "uint256",
          "name": "_quantidade",
          "type": "uint256"
        },
        {
          "internalType": "uint256",
          "name": "_preco",
          "type": "uint256"
        },
        {
          "internalType": "uint256",
          "name": "_timestamp",
          "type": "uint256"
        }
      ],
      "name": "registrarTransacao",
      "outputs": [],
      "stateMutability": "nonpayable",
      "type": "function"
    },
    {
      "inputs": [
        {
          "internalType": "address",
          "name": "_carteira1",
          "type": "address"
        },
        {
          "internalType": "address",
          "name": "_carteira2",
          "type": "address"
        },
        {
          "internalType": "bytes32",
          "name": "_sku",
          "type": "bytes32"
        },
        {
          "internalType": "uint256",
          "name": "_quantidade",
          "type": "uint256"
        },
        {
          "internalType": "uint256",
          "name": "_preco",
          "type": "uint256"
        },
        {
          "internalType": "uint256",
          "name": "_timestamp",
          "type": "uint256"
        }
      ],
      "name": "validarDetalhesTransacao",
      "outputs": [],
      "stateMutability": "nonpayable",
      "type": "function"
    }
  ],
  "bytecode": "0x608060405234801561001057600080fd5b50336000806101000a81548173ffffffffffffffffffffffffffffffffffffffff021916908373ffffffffffffffffffffffffffffffffffffffff160217905550611678806100606000396000f3fe608060405234801561001057600080fd5b50600436106100885760003560e01c80638da5cb5b1161005b5780638da5cb5b14610117578063a61eca4214610135578063dacb525a14610151578063dccdf3561461018157610088565b80634ed72a511461008d578063566d36e8146100c35780635f2b77e0146100df5780637cc77b8b146100fb575b600080fd5b6100a760048036038101906100a29190610d6e565b6101b1565b6040516100ba9796959493929190611277565b60405180910390f35b6100dd60048036038101906100d89190610d97565b610240565b005b6100f960048036038101906100f49190610d97565b6104ac565b005b61011560048036038101906101109190610e9d565b6106ad565b005b61011f6108e7565b60405161012c91906111fb565b60405180910390f35b61014f600480360381019061014a9190610e49565b61090b565b005b61016b60048036038101906101669190610d6e565b610a19565b6040516101789190611418565b60405180910390f35b61019b60048036038101906101969190610e20565b610b04565b6040516101a891906112e6565b60405180910390f35b60036020528060005260406000206000915090508060000160009054906101000a900473ffffffffffffffffffffffffffffffffffffffff16908060010160009054906101000a900473ffffffffffffffffffffffffffffffffffffffff16908060020154908060030154908060040154908060050154908060060160009054906101000a900460ff16905087565b600073ffffffffffffffffffffffffffffffffffffffff168673ffffffffffffffffffffffffffffffffffffffff16141580156102aa5750600073ffffffffffffffffffffffffffffffffffffffff168573ffffffffffffffffffffffffffffffffffffffff1614155b6102e9576040517f08c379a00000000000000000000000000000000000000000000000000000000081526004016102e0906113d8565b60405180910390fd5b6040518060e001604052808773ffffffffffffffffffffffffffffffffffffffff1681526020018673ffffffffffffffffffffffffffffffffffffffff16815260200185815260200184815260200183815260200182815260200160001515815250600360008773ffffffffffffffffffffffffffffffffffffffff1673ffffffffffffffffffffffffffffffffffffffff16815260200190815260200160002060008201518160000160006101000a81548173ffffffffffffffffffffffffffffffffffffffff021916908373ffffffffffffffffffffffffffffffffffffffff16021790555060208201518160010160006101000a81548173ffffffffffffffffffffffffffffffffffffffff021916908373ffffffffffffffffffffffffffffffffffffffff16021790555060408201518160020155606082015181600301556080820151816004015560a0820151816005015560c08201518160060160006101000a81548160ff0219169083151502179055509050507fdc6b9e6722437e5be5e57a261e6e27e497df1831df210e6cadfb12a23dfe0d7686868686868660405161049c96959493929190611216565b60405180910390a1505050505050565b6000600360008773ffffffffffffffffffffffffffffffffffffffff1673ffffffffffffffffffffffffffffffffffffffff16815260200190815260200160002090508673ffffffffffffffffffffffffffffffffffffffff168160000160009054906101000a900473ffffffffffffffffffffffffffffffffffffffff1673ffffffffffffffffffffffffffffffffffffffff1614801561059d57508573ffffffffffffffffffffffffffffffffffffffff168160010160009054906101000a900473ffffffffffffffffffffffffffffffffffffffff1673ffffffffffffffffffffffffffffffffffffffff16145b80156105ac5750848160020154145b80156105bb5750838160030154145b80156105ca5750828160040154145b80156105d95750818160050154145b80156105f457508060060160009054906101000a900460ff16155b610633576040517f08c379a000000000000000000000000000000000000000000000000000000000815260040161062a906113f8565b60405180910390fd5b60018160060160006101000a81548160ff0219169083151502179055507fa0a62eff716bf65489aa7a00157ee9eec1f7f129334a96367056104eb5463d438787878787878760060160009054906101000a900460ff1660405161069c9796959493929190611277565b60405180910390a150505050505050565b60008054906101000a900473ffffffffffffffffffffffffffffffffffffffff1673ffffffffffffffffffffffffffffffffffffffff163373ffffffffffffffffffffffffffffffffffffffff161461073b576040517f08c379a000000000000000000000000000000000000000000000000000000000815260040161073290611338565b60405180910390fd5b600073ffffffffffffffffffffffffffffffffffffffff168173ffffffffffffffffffffffffffffffffffffffff1614156107ab576040517f08c379a00000000000000000000000000000000000000000000000000000000081526004016107a290611398565b60405180910390fd5b6000600160008373ffffffffffffffffffffffffffffffffffffffff1673ffffffffffffffffffffffffffffffffffffffff16815260200190815260200160002060000180546107fa9061155c565b90501461083c576040517f08c379a0000000000000000000000000000000000000000000000000000000008152600401610833906113b8565b60405180910390fd5b604051806020016040528083815250600160008373ffffffffffffffffffffffffffffffffffffffff1673ffffffffffffffffffffffffffffffffffffffff16815260200190815260200160002060008201518160000190805190602001906108a6929190610c11565b509050507f95422a9080fe6d9aeee38c5595b58209d935da811efee1576380344b7b3cf4a482826040516108db929190611308565b60405180910390a15050565b60008054906101000a900473ffffffffffffffffffffffffffffffffffffffff1681565b600060026000848152602001908152602001600020600001805461092e9061155c565b905014610970576040517f08c379a000000000000000000000000000000000000000000000000000000000815260040161096790611378565b60405180910390fd5b60405180604001604052808281526020013373ffffffffffffffffffffffffffffffffffffffff168152506002600084815260200190815260200160002060008201518160000190805190602001906109ca929190610c11565b5060208201518160010160006101000a81548173ffffffffffffffffffffffffffffffffffffffff021916908373ffffffffffffffffffffffffffffffffffffffff1602179055509050505050565b610a21610c97565b600160008373ffffffffffffffffffffffffffffffffffffffff1673ffffffffffffffffffffffffffffffffffffffff168152602001908152602001600020604051806020016040529081600082018054610a7b9061155c565b80601f0160208091040260200160405190810160405280929190818152602001828054610aa79061155c565b8015610af45780601f10610ac957610100808354040283529160200191610af4565b820191906000526020600020905b815481529060010190602001808311610ad757829003601f168201915b5050505050815250509050919050565b60606000600260008481526020019081526020016000206000018054610b299061155c565b905011610b6b576040517f08c379a0000000000000000000000000000000000000000000000000000000008152600401610b6290611358565b60405180910390fd5b600260008381526020019081526020016000206000018054610b8c9061155c565b80601f0160208091040260200160405190810160405280929190818152602001828054610bb89061155c565b8015610c055780601f10610bda57610100808354040283529160200191610c05565b820191906000526020600020905b815481529060010190602001808311610be857829003601f168201915b50505050509050919050565b828054610c1d9061155c565b90600052602060002090601f016020900481019282610c3f5760008555610c86565b82601f10610c5857805160ff1916838001178555610c86565b82800160010185558215610c86579182015b82811115610c85578251825591602001919060010190610c6a565b5b509050610c939190610caa565b5090565b6040518060200160405280606081525090565b5b80821115610cc3576000816000905550600101610cab565b5090565b6000610cda610cd58461146b565b61143a565b905082815260208101848484011115610cf257600080fd5b610cfd84828561151a565b509392505050565b600081359050610d14816115fd565b92915050565b600081359050610d2981611614565b92915050565b600082601f830112610d4057600080fd5b8135610d50848260208601610cc7565b91505092915050565b600081359050610d688161162b565b92915050565b600060208284031215610d8057600080fd5b6000610d8e84828501610d05565b91505092915050565b60008060008060008060c08789031215610db057600080fd5b6000610dbe89828a01610d05565b9650506020610dcf89828a01610d05565b9550506040610de089828a01610d1a565b9450506060610df189828a01610d59565b9350506080610e0289828a01610d59565b92505060a0610e1389828a01610d59565b9150509295509295509295565b600060208284031215610e3257600080fd5b6000610e4084828501610d1a565b91505092915050565b60008060408385031215610e5c57600080fd5b6000610e6a85828601610d1a565b925050602083013567ffffffffffffffff811115610e8757600080fd5b610e9385828601610d2f565b9150509250929050565b60008060408385031215610eb057600080fd5b600083013567ffffffffffffffff811115610eca57600080fd5b610ed685828601610d2f565b9250506020610ee785828601610d05565b9150509250929050565b610efa816114c8565b82525050565b610f09816114da565b82525050565b610f18816114e6565b82525050565b6000610f298261149b565b610f3381856114a6565b9350610f43818560208601611529565b610f4c816115ec565b840191505092915050565b6000610f628261149b565b610f6c81856114b7565b9350610f7c818560208601611529565b610f85816115ec565b840191505092915050565b6000610f9d6039836114b7565b91507f4170656e6173206f2070726f70726965746172696f20646f20636f6e7472617460008301527f6f20706f6465206368616d617220657374612066756e63616f000000000000006020830152604082019050919050565b60006110036016836114b7565b91507f50726f6475746f206e616f20656e636f6e747261646f000000000000000000006000830152602082019050919050565b60006110436015836114b7565b91507f50726f6475746f206a612061646963696f6e61646f00000000000000000000006000830152602082019050919050565b60006110836026836114b7565b91507f456e64657265636f206461206361727465697261204d6574616d61736b20696e60008301527f76616c69646f00000000000000000000000000000000000000000000000000006020830152604082019050919050565b60006110e96015836114b7565b91507f436c69656e7465206a61206361646173747261646f00000000000000000000006000830152602082019050919050565b6000611129601a836114b7565b91507f4361727465697261204d6574616d61736b20696e76616c6964610000000000006000830152602082019050919050565b6000611169603c836114b7565b91507f446574616c686573206461207472616e736163616f206e616f20636f7272657360008301527f706f6e64656d206f75206a6120666f72616d2076616c696461646f73000000006020830152604082019050919050565b600060208301600083015184820360008601526111df8282610f1e565b9150508091505092915050565b6111f581611510565b82525050565b60006020820190506112106000830184610ef1565b92915050565b600060c08201905061122b6000830189610ef1565b6112386020830188610ef1565b6112456040830187610f0f565b61125260608301866111ec565b61125f60808301856111ec565b61126c60a08301846111ec565b979650505050505050565b600060e08201905061128c600083018a610ef1565b6112996020830189610ef1565b6112a66040830188610f0f565b6112b360608301876111ec565b6112c060808301866111ec565b6112cd60a08301856111ec565b6112da60c0830184610f00565b98975050505050505050565b600060208201905081810360008301526113008184610f57565b905092915050565b600060408201905081810360008301526113228185610f57565b90506113316020830184610ef1565b9392505050565b6000602082019050818103600083015261135181610f90565b9050919050565b6000602082019050818103600083015261137181610ff6565b9050919050565b6000602082019050818103600083015261139181611036565b9050919050565b600060208201905081810360008301526113b181611076565b9050919050565b600060208201905081810360008301526113d1816110dc565b9050919050565b600060208201905081810360008301526113f18161111c565b9050919050565b600060208201905081810360008301526114118161115c565b9050919050565b6000602082019050818103600083015261143281846111c2565b905092915050565b6000604051905081810181811067ffffffffffffffff82111715611461576114606115bd565b5b8060405250919050565b600067ffffffffffffffff821115611486576114856115bd565b5b601f19601f8301169050602081019050919050565b600081519050919050565b600082825260208201905092915050565b600082825260208201905092915050565b60006114d3826114f0565b9050919050565b60008115159050919050565b6000819050919050565b600073ffffffffffffffffffffffffffffffffffffffff82169050919050565b6000819050919050565b82818337600083830152505050565b60005b8381101561154757808201518184015260208101905061152c565b83811115611556576000848401525b50505050565b6000600282049050600182168061157457607f821691505b602082108114156115885761158761158e565b5b50919050565b7f4e487b7100000000000000000000000000000000000000000000000000000000600052602260045260246000fd5b7f4e487b7100000000000000000000000000000000000000000000000000000000600052604160045260246000fd5b6000601f19601f8301169050919050565b611606816114c8565b811461161157600080fd5b50565b61161d816114e6565b811461162857600080fd5b50565b61163481611510565b811461163f57600080fd5b5056fea2646970667358221220748f34cec22418ee532bc9371d76eea0ff6a82c9b497c7a50fa9992a783f61ba64736f6c63430008000033",
  "linkReferences": {},
  "deployedLinkReferences": {}
}